:020000020000FC
:040000000C945B0001
:02004800E3C211
:02004C0084C26C
:0200500083C269
:040064000C944E02A8
:02007400FEC1CB
:02008400F8C2C0
:0200880029C38A
:02008C0028C387
:0200AC0071C31E
:0200B000A2C3E9
:1000B400A1C3F89401E20EBF0FEF0DBF0FEF07B914
:1000C40000E008B90FEF03BB04B925980DB90093FC
:1000D400010100E000BB05B900E000938B00009330
:1000E4008A0000938D0000938C0000938A00009393
:1000F4008B0000938C0000938D0000000000000032
:10010400000000939B0000939A0000939D000093CD
:100114009C0000000000000000000093AB0000936E
:10012400AA000093AD000093AC00000000000000A2
:10013400000015E003E310938900009388001093F6
:100144009900009398001093A9000093A80020E060
:10015400209301022093020220E016E2209303027E
:10016400109304022093050210930602DAD108E3E7
:100174000093000260E06AD1E7E0F2E0D2E0CAE175
:10018400F999FECF00E001BDF89A00B5B2E0ADE206
:100194000D93F999FECF01E001BDF89A00B50C93D7
:1001A400F999FECF02E001BDF89A00B500932F0241
:1001B400002700EC00937C000FEC00937A000027EA
:1001C40000931602002700932902789400911602E6
:1001D400003081F57636D1F37E30C0F3D2E0CAE147
:1001E400B2E0ABE22D911C910F930FB70F9302E491
:1001F4000993439529934395188343950F910FBF12
:100204000F9171E0C2C0E2CF002700936F0000930A
:1002140071000093720076E611EF0F930FB70F93FE
:1002240001E809934395199343950F910FBF0F91DB
:10023400ACC0CCCF009119020023E1F7F2E0E7E073
:10024400009116020A955191650F0A95E1F75081C4
:100254006513DBC0F2E0E7E0D2E0CAE151910FE3BD
:1002640050235A955093160251910F930FB70F9341
:100274001F933F935F936F93513061F05632B9F0FF
:10028400553179F1503379F100E00093170200936E
:10029400160274C011E00F930FB70F9301E809938E
:1002A4004395199343950F910FBF0F9167C0BF9367
:1002B400AF93B2E0ADE23D911C9150912F020F93A8
:1002C4000FB70F9302E40993439539934395199318
:1002D4004395599343950F910FBF0F91AF91BF91E0
:1002E4004DC071E04BC0BF93AF93B2E0ADE211914A
:1002F4000F930FB70F93F894F999FECF00E001BD67
:10030400012F00BDFA9AF99A78940F910FBF0F91BB
:100314001D9311910F930FB70F93F894F999FECF92
:1003240001E001BD012F00BDFA9AF99A78940F916A
:100334000FBF0F911C9311910F930FB70F93F89464
:10034400F999FECF02E001BD012F00BDFA9AF99A96
:1003540078940F910FBF0F9110932F0235E10F93F3
:100364000FB70F9301E809934395399343950F9180
:100374000FBF0F9171E0AF91BF9100C06F915F917A
:100384003F911F910F910FBF0F91D2E0CAE16627F1
:1003940040932902009129020030B9F15FEF0F93D5
:1003A4000FB70F930091C00005FFFCCF5093C60018
:1003B4000F910FBF0F915991650F0F930FB70F93C3
:1003C4000091C00005FFFCCF5093C6000F910FBFF2
:1003D4000F910A9581F7562F0F930FB70F93009142
:1003E400C00005FFFCCF5093C6000F910FBF0F91C3
:1003F40050EF0F930FB70F930091C00005FFFCCF90
:100404005093C6000F910FBF0F910027009317025E
:1004140000931602CAE1D2E0E7E0F2E0662740E08A
:10042400D5CE1F932F934F935F93B2E0ABE21D9110
:100434002C91B2E0ADE25D914C911417250708F0C0
:10044400E3CE5F914F912F911F91C6CE00E00093B0
:10045400C50003E30093C40000270093C00008E92B
:100464000093C10006E00093C20078941895BF93EE
:10047400AF930F930FB70F931F93B2E0ABE20091CA
:1004840078000D93009179000C931F910F910FBF89
:100494000F91AF91BF9118951F931FB71F934F935F
:1004A4001091C00017FFF8CF40911902403041F479
:1004B4001091C6001F3F91F44395409319020EC05A
:1004C4001091C600103F21F440E04093190206C089
:1004D4001193409116024395409316024F911F9138
:1004E4001FBF1F91189580008B00FA001501590158
:1004F4009C01DE011E025D029B02D602100347032B
:100504007C03AF03DF030C0436045E048204A404FA
:10051400C204DC04F104F604FB04000505050A0525
:10052400110509E200938000009390000093A0005D
:1005340001E100938100009391000093A1000DE07C
:1005440000936F000DE0009371000DE000937200C2
:10055400089518950F930FB70F931F93BF93AF93FD
:10056400FF93EF93009100020F93B0910102A091C9
:100574000202F4E0EAEE0170003011F00130C9F03B
:10058400AC3341F4B03031F40F91016000930002B8
:100594000F9321C0EA0FFB1F0591149110938B0058
:1005A40000938A001296B0930102A09302020F9165
:1005B40023C0A03081F4B03071F40F910E7F01FD9F
:1005C40002C0026001C00D7F009300020F937030DF
:1005D40009F07395DFCFEA0FFB1F31971491319720
:1005E400049110938B0000938A001297B093010238
:1005F400A09302020F9100C0F894EF91FF91AF9184
:10060400BF911F910F910FBF0F9118950F930FB7C3
:100614000F931F93BF93AF930091840010918500B3
:10062400A02FB12F009100020270003019F00230A7
:1006340069F017C0469800918400109185000A1B48
:100644001B0B12F0479801C0479A0BC047980091C2
:100654008400109185000A1B1B0B12F0469801C000
:10066400469AF894AF91BF911F910F910FBF0F91CC
:1006740018950F930FB70F931F93BF93AF930091E8
:10068400840010918500A02FB12F00910002087002
:10069400003019F0083069F017C0439800918400C5
:1006A400109185000A1B1B0B12F0459801C0459A56
:1006B400D8CF459800918400109185000A1B1B0B2C
:1006C40012F0439801C0439AF894AF91BF911F91DF
:1006D4000F910FBF0F91189518950F930FB70F93A4
:1006E4001F93BF93AF93FF93EF93009100020F9377
:1006F400B0910302A0910402F4E0EAEE0470003029
:1007040011F00430C9F0AC3341F4B03031F40F913E
:100714000460009300020F931EC0EA0FFB1F0591B3
:10072400149110939B0000939A001296B0930302C5
:10073400A09304020F9120C0A03069F4B03059F4A2
:100744000F910B7F03FD02C0086001C0077F009377
:1007540000020F93E2CFEA0FFB1F319714913197F8
:10076400049110939B0000939A001297B093030294
:10077400A09304020F9100C0F894EF91FF91AF9100
:10078400BF911F910F910FBF0F9118950F930FB742
:100794000F931F93BF93AF93009184001091850032
:1007A400A02FB12F009100020072003019F0003226
:1007B40069F017C0409800918400109185000A1BCD
:1007C4001B0B12F0419801C0419A0BC04198009153
:1007D4008400109185000A1B1B0B12F0409801C085
:1007E400409AF894AF91BF911F910F910FBF0F9151
:1007F400189518950F930FB70F931F93BF93AF934B
:10080400FF93EF93009100020F93B0910502A09122
:100814000602F4E0EAEE0071003011F00031C9F094
:10082400AC3341F4B03031F40F9100610093000215
:100834000F931EC0EA0FFB1F059114911093AB0098
:100844000093AA001296B0930502A09306020F919A
:1008540020C0A03069F4B03059F40F910F7E03FD2D
:1008640002C0006201C00F7D009300020F93E2CF2B
:10087400EA0FFB1F31971491319704911093AB0049
:100884000093AA001297B0930502A09306020F9159
:1008940000C0F894EF91FF91AF91BF911F910F9118
:0608A4000FBF0F91189533
:00000001FF
